:1000000073C20000A2C20000A0C200009EC2000095
:100010009CC200009AC2000098C2000096C2000074
:1000200094C2000092C2000090C200008EC2000084
:100030008CC200008AC2000088C2000086C2000094
:1000400084C2000082C2000080C200007EC20000A4
:100050007CC200007AC2000078C200000C94328D8D
:1000600074C200000C9480900C94B6906EC2000094
:100070006CC200006AC2000068C2000066C20000D4
:1000800064C2000062C2000060C200005EC20000E4
:100090005CC200005AC2000058C2000056C20000F4
:1000A00054C2000052C2000050C200004EC2000004
:1000B0004CC200004AC2000048C2000046C2000014
:1000C00044C2000042C2000040C200003EC2000024
:1000D0003CC200003AC2000038C2000036C2000034
:1000E00034C20000688E6B8E5A8E5E8E648EA28E35
:1000F0006F8E738E798E7D8E818E878E8B8E8F8E96
:10010000A28E958E998E9D8E444E53206661696CA9
:10011000656420666F722074696D65207265717503
:1001200065737400557365722D4167656E743A206E
:100130004D6F7A696C6C612F352E30202857696EAF
:10014000646F7773204E5420362E313B20574F5723
:1001500036342900687474703A2F2F7777772E74AD
:10016000696D656170692E6F7267007777772E749D
:10017000696D656170692E6F726700000000000094
:10018000000000000000000000000000000000006F
:100190000000000000000000004142434445464783
:1001A00048494A4B4C4D4E4F505152535455565757
:1001B00058595A6162636465666768696A6B6C6DF9
:1001C0006E6F707172737475767778797A303132B8
:1001D000333435363738392B2F00504F53542024C1
:1001E0004620485454502F312E300D0A486F7374F6
:1001F0003A2024460D0A24462453416363657074F3
:100200003A202A2F2A0D0A436F6E74656E742D4CA6
:10021000656E6774683A2024440D0A436F6E7465F6
:100220006E742D547970653A206170706C696361E9
:1002300074696F6E2F782D7777772D666F726D2DBD
:1002400075726C656E636F6465640D0A0D0A2453E4
:100250000000474554202446245320485454502F2E
:10026000312E300D0A486F73743A2024460D0A244B
:10027000460D0A0D0A0045000082000040002000E3
:100280000108000604000145727253756E4D6F6ED1
:100290005475655765645468754672695361740096
:1002A0004572724A616E4665624D61724170724D6F
:1002B00061794A756E4A756C4175675365704F6315
:1002C000744E6F764465630000000A0B02090C0D42
:1002D0000E080703040100000000000000000000F9
:1002E000000000000000000000000000000000000E
:1002F00000000000121110000000000000000000CB
:1003000000000000000000000000000000000102EA
:100310001020200808102040102040800201020117
:1003200008040201010204081020408080402010CF
:100330000804020180040201804020100804020128
:100340000804020101020408102040800102040890
:100350001020408005050505070508080808020269
:1003600002020A0A0808040404040101010101014F
:1003700001010303030303030303040707070C0C32
:100380000C0C0C0C0C0C02020202060606060606F9
:1003900006060B0B0B0B0B0B0B0B000020002300B6
:1003A000260029002C002F0032000001000003016C
:1003B0000601090100002200250028002B002E0064
:1003C0003100340002010000050108010B010000AA
:1003D0002100240027002A002D00300033000101F5
:1003E0000000040107010A0100407A10F35A00A03E
:1003F000724E18090010A5D4E80000E876481700EE
:1004000000E40B54020000CA9A3B000000E1F5052D
:10041000000080969800000040420F000000A08677
:1004200001000000102700000000E80300000000A9
:100430006400000000000A0000000000010000004D
:1004400000002C76D888DC674F0823DFC1DFAE5967
:10045000E1B1B796E5E3E453C63AE651997696E8FA
:10046000E6C28426EB898C9B62ED407C6FFCEFBC7E
:100470009C9F40F2BAA56FA5F490055A2AF75C93A9
:100480006B6CF9676DC11BFCE0E40D47FEF520E6DF
:10049000B500D0ED902E0300943577050080841EC2
:1004A000080000204E0A000000C80C333333330F1D
:1004B000986E12831141EF8D2114893BE65516CFBA
:1004C000FEE6DB18D1844B381BF77C1D901DA4BBC6
:1004D000E424203284725E228100C9F124ECA1E57B
:1004E0003D271F09E890430911241FBECFEFD1E239
:1004F000DEBFCDBF00E00CBF15E0A0E0B2E0E4E25B
:10050000FFE301E00BBF02C007900D92AE3DB107C3
:10051000D9F729E0AEEDB5E001C01D92AA35B207CA
:10052000E1F714E0C6EED4E000E006C0229701092E
:10053000FE010BBF0E947E97C23ED10780E00807F4
:10054000A9F70E942C910C94809F5ACDCF93DF93F2
:10055000EB016AE372E089EB98E00E94A091BE0192
:1005600060517A4FFB01E45DFE4F108289EB98E009
:10057000DF91CF910C94A0917F928F929F92AF9236
:10058000BF92CF92DF92EF92FF920F931F93CF9380
:10059000DF938B017A0169E472E089EB98E00E94B5
:1005A000A09100511A4FF801E45DFE4F1082B8018E
:1005B00089EB98E00E94A091E7016997C00FD11FD5
:1005C00067E572E089EB98E00E94A0914AE050E074
:1005D000B70189EB98E00E946C92BE0189EB98E02C
:1005E0000E94A09168E672E089EB98E00E94A091D9
:1005F000BE0189EB98E00E94A091DE01A12CB12CF4
:10060000C12CD12CC0E0D0E0812C912C00E010E076
:10061000E12CF12C712C80E09AE0ED91FF27E7FDB1
:10062000F095F097EA30F10508F04CC0843048F4BA
:1006300073949701929F7001939FF00C1124EE0E1A
:10064000FF1E2BEF280F223048F473949801929FDD
:100650008001939F100D11240E0F1F1F28EF280FEC
:10066000223048F473949401929F4001939F900C20
:1006700011248E0E9F1E25EF280F223048F473940C
:100680009E01929FE001939FD00D1124CE0FDF1F9A
:1006900022EF280F223048F473949601929F600154
:1006A000939FD00C1124CE0EDF1E2FEE280F223088
:1006B00048F473949501929F5001939FB00C1124BC
:1006C000AE0EBF1E8F5F833109F0A7CF3EE07316D9
:1006D000D1F06DE772E089EB98E00E94A0914AE0CA
:1006E00050E0672D89EB98E0DF91CF911F910F913A
:1006F000FF90EF90DF90CF90BF90AF909F908F9042
:100700007F900C9466924AE050E0B70189EB98E044
:100710000E9444924AE050E0B80189EB98E00E94C0
:1007200044924AE050E0B40189EB98E00E94449280
:100730004AE050E0BE0189EB98E00E9444924AE012
:1007400050E0B60189EB98E00E9444924AE050E004
:10075000B50189EB98E00E9444929401A501B6018D
:10076000CE010E942E1D6DE972E089EB98E0DF91C9
:10077000CF911F910F91FF90EF90DF90CF90BF909E
:10078000AF909F908F907F900C94A0918BE791E019
:100790000E94589381E891E00E94589387E891E085
:1007A0000E9458938DE891E00E94589383E991E06C
:1007B0000C94589326E040E051EE60E070E089EB45
:1007C00098E00E94209088E893E1A0E0B0E0809358
:1007D000E4079093E507A093E607B093E7078EED53
:1007E00095E054D645E366E072E084EF91E00E9424
:1007F0007613811106C06AEA72E089EB98E00E94E4
:10080000A09160E080E090E00E947D0E811106C022
:100810006FEC72E089EB98E00E94A0916BED72E0C2
:1008200089EB98E00C94A0914F925F926F927F9227
:100830008F929F92AF92BF92CF92DF92EF92FF92F0
:100840000F931F93CF93DF93CDB7DEB7C25DD1096E
:100850000FB6F894DEBF0FBECDBF8C015B01C09018
:100860009101D0909201C601A0E0B0E0C153DF4FEA
:1008700088839983AA83BB83CF5CD04020E030E09B
:10088000A601812C912CB4018DE891E00E94C794BF
:1008900065EE72E089EB98E00E94A0917401812CD2
:1008A000912C412C512C3201C153DF4F8881998109
:1008B000AA81BB81CF5CD040481659066A067B06E8
:1008C00090F4D7016D917D01F40161934F014AE0ED
:1008D00050E089EB98E00E946692FFEF4F1A5F0AA2
:1008E0006F0A7F0AE1CF89EB98E00E948D91A60103
:1008F00060E070E0CE0101960E94B98CD50114969B
:10090000CD90DC90159720E030E0A601E12CF12C91
:10091000B701C5010E94C794A601B701CE01019697
:100920000E946F8C80E290E00E9438917C01BC01B3
:10093000CE0101960E94708CD701FE01E755FF4F52
:10094000CF014F966F012D912193E817F907D9F741
:1009500080E290E099D40E9438917C01B60189EB45
:1009600098E00E9485916FEE72E089EB98E00E941A
:10097000859140E250E0B601C701BFD4B70189EBD1
:1009800098E00E94A09163EF72E0C8010E94BF93BB
:1009900063E971E0C8010E9489946BE973E0C801C2
:1009A0000E948F94B701CE0187539F4F0E94BF933F
:1009B000BE0167537F4FC8010E948994CE018753BF
:1009C0009F4F0E945893B80189EB98E00E9477915D
:1009D000C801CE52DF4F0FB6F894DEBF0FBECDBFB9
:1009E000DF91CF911F910F91FF90EF90DF90CF900B
:1009F000BF90AF909F908F907F906F905F904F903F
:100A000008950F931F9360E08BE691E00E94D40E4F
:100A1000811108C068E071E089EB98E01F910F91A7
:100A20000C94A0910CEB12E024E231E04BE651E093
:100A30006DE475E084E591E00E94A0161F910F918E
:100A40000895EF92FF920F931F93CF93DF93EC01E2
:100A50000E941A1DF82EE92E0E94261D182F092F1C
:100A60000E942C1DEF92FF920F931F939F938F93E1
:100A700021E133E03F932F93DF93CF930E94519A6C
:100A80008DB79EB70A960FB6F8949EBF0FBE8DBF66
:100A9000DF91CF911F910F91FF90EF900895EF920A
:100AA000FF920F931F93CF93DF93EC010E94141DCD
:100AB000F82EE92E0E940E1D182F092F0E94081DE6
:100AC000EF92FF920F931F939F938F932FE133E049
:100AD0003F932F93DF93CF930E94519A8DB79EB788
:100AE0000A960FB6F8949EBF0FBE8DBFDF91CF91CF
:100AF0001F910F91FF90EF900895CF93DF93CDB7A3
:100B0000DEB764970FB6F894DEBF0FBECDBFCE013F
:100B1000019697DFCE010C96C2DFBE016F5F7F4F5B
:100B200089EB98E00E94859164E373E089EB98E09B
:100B30000E948591BE01645F7F4F89EB98E00E941F
:100B4000859164960FB6F894DEBF0FBECDBFDF91DE
:100B5000CF910895AF92BF92CF92DF92EF92FF9222
:100B60000F931F93CF93DF93CDB7DEB728970FB6C0
:100B7000F894DEBF0FBECDBF60E08EED95E033D6BA
:100B8000162FF72EE82ED92E40E060E08EED95E08E
:100B9000CBD5062FC72EB82EA92E262F372F482F9C
:100BA000592F0E940C97811135C0212F3F2D4E2DBA
:100BB0005D2D612F7F2D8E2D9D2D0E940C97811113
:100BC00029C06EE273E089EB98E00E94859122E0F3
:100BD00030E0412F5F2D6E2D7D2D89EB98E00E9436
:100BE000579362E373E089EB98E00E94859166E396
:100BF00073E089EB98E00E94859122E030E0402F7D
:100C00005C2D6B2D7A2D89EB98E00E9457936AE357
:100C100073E002C06DE373E089EB98E00E94A0915D
:100C2000812F9F2DAE2DBD2D89839A83AB83BC83ED
:100C3000802F9C2DAB2DBA2D8D839E83AF83B887DB
:100C4000212F3A814B815C81602F7E818F81988535
:100C500028960FB6F894DEBF0FBECDBFDF91CF91BF
:100C60001F910F91FF90EF90DF90CF90BF90AF90CA
:100C700008950F931F93CF93DF93EC010C811D8197
:100C8000C8010E94389120E030E0A801BC01CE01EB
:100C9000DF91CF911F910F910C94C7944F925F9267
:100CA0006F927F928F929F92AF92BF92CF92DF927C
:100CB000EF92FF920F931F93CF93DF93CDB7DEB7E1
:100CC000C255D1090FB6F894DEBF0FBECDBF2C962A
:100CD0002FAF2C972D963FAF2D972E964FAF2E9777
:100CE0002F965FAF2F9760966FAF609761967FAF3B
:100CF000619762968FAF629763969FAF639764E543
:100D000073E0CE0101960E94BF9363E971E0CE01CA
:100D100001960E949E9461E871E00E949E9467E8AB
:100D200071E00E949E94BC01CE018B5B9F4F0E949C
:100D3000E993CE0101960E945893BE016B5B7F4FF1
:100D4000CE0101960E94E99300E010E0B801CE01C7
:100D500001968FDFCE0101960E94589360E0C80192
:100D60000E94D40E811111C0B80189EB98E00E9455
:100D7000A09168E071E089EB98E00E94A091CE011B
:100D80008B5B9F4F0E945893EFC1CE01019659DEB5
:100D9000CE010C9684DE6CE573E0CE01CF960E9406
:100DA000BF93BE016F5F7F4FCE014B960E94BF93F2
:100DB0006EE573E0CE0145960E94BF93BE01655E6D
:100DC0007F4FCE0145960E949E946FE673E00E948D
:100DD000AF94BC01CE01CF960E948994CE01459676
:100DE0000E945893CE014B960E945893BE01645FB7
:100DF0007F4FCE014B960E94BF9363E773E0CE0115
:100E000045960E94BF93BE01655E7F4FCE01459619
:100E10000E949E946FE673E00E94AF94BC01CE01E5
:100E2000CF960E948994CE0145960E945893CE0198
:100E30004B960E9458932F964CAD5DAD6EAD7FAD35
:100E40002F9722E0CE014B960E9431946EE773E01B
:100E5000CE0145960E94BF93BE01655E7F4FCE01D5
:100E600045960E949E9460E773E00E94AF94BC0197
:100E7000CE01CF960E948994CE0145960E94589348
:100E8000CE014B960E94589363964CAD5DAD6EAD0E
:100E90007FAD639722E0CE014B960E9431946CE8BF
:100EA00073E0CE0145960E94BF93BE01655E7F4F01
:100EB000CE0145960E949E9464E373E00E94AF9435
:100EC000BC01CE01CF960E948994CE0145960E9426
:100ED0005893CE014B960E9458936DE973E0CE0172
:100EE000CF960E948F94BE01615C7F4F89EB98E0A2
:100EF0000E94909182E390E00E9438918C010E94C0
:100F0000141D582E492E0E940E1D782E692E0E9407
:100F1000081D982E892E0E942C1DB82EA92E0E94E5
:100F2000261D0E94581AD82EC92E0E941A1DF82E6E
:100F3000E92E0E94201D0E94711A4F925F926F92BB
:100F40007F928F929F92AF92BF92CF92DF92EF9259
:100F5000FF929F938F932FE933E03F932F931F933B
:100F60000F930E94519AB80189EB98E00E948591F5
:100F7000B801CE01C9960E94BF93BE01675C7F4F46
:100F8000CE0145960E94E99363EC73E0CE0145964D
:100F90000E94AF9463E971E00E949E9467E871E05B
:100FA0000E949E94BC01CE01C3960E94E993CE019B
:100FB00045960E945893BE016D5C7F4FCE014596C9
:100FC0000E94E993BE016B5E7F4FCE018D962CDCB3
:100FD000CE0145960E94589363E971E0CE01459693
:100FE0000E94E99361E871E0CE0145960E949E94CB
:100FF000BC01CE0187960E94E993CE0145960E94DE
:1010000058936BE771E0CE0181960E94E99366ECFC
:1010100073E0CE0145960E94BF93BE01675C7F4F8F
:10102000CE0145960E949E94BC01CE0181960E94FD
:101030008994CE0145960E94589361E675E0CE01F1
:1010400045960E94BF93BE01635D7F4FCE014596DA
:101050000E949E94BC01CE0181960E948994CE018B
:1010600045960E94589325966EAD7FAD25974AE030
:10107000CE014B960E94079463ED73E0CE01459636
:101080000E94BF93BE01655E7F4FCE0145960E94D0
:101090009E94BC01CE0181960E948994CE01459612
:1010A0000E945893CE014B960E945893BE01695DF1
:1010B0007F4FCE0145960E94E993E12CF12CB701B8
:1010C000CE014596D6DDCE0145960E945893BE01CD
:1010D000615C7F4FCE0145960E94E993A12CB12C13
:1010E000B501CE014596C5DDCE0145960E945893C7
:1010F000BE016F5D7F4FCE0145960E94E993C12CE2
:10110000D12CB601CE014596B4DDCE0145960E94A4
:10111000589306EA12E09501A601B70180E090E03D
:101120000E94C816CE0181960E945893CE018796E0
:101130000E945893CE018D960E945893CE01C3967B
:101140000E945893CE01C9960E945893CE01CF9623
:101150000E945893CE018B5B9F4F0E9458930FB60D
:10116000F894DEBF0FBECDBFCE5ADF4F0FB6F89456
:10117000DEBF0FBECDBFDF91CF911F910F91FF90CA
:10118000EF90DF90CF90BF90AF909F908F907F9027
:101190006F905F904F9008950F931F93CF93DF93BD
:1011A000CDB7DEB728970FB6F894DEBF0FBECDBF20
:1011B0000E94B9110E9461170E947C8D0091E8077E
:1011C0001091E9072091EA073091EB0706171707FE
:1011D0002807390748F58091E4079091E507A09129
:1011E000E607B091E707800F911FA21FB31F8093FE
:1011F000E8079093E907A093EA07B093EB0765EE41
:1012000073E089EB98E00E94A0910E94501D892B09
:1012100011F4F7DB07C071DC64E373E089EB98E05D
:101220000E94859197DC3ADD28960FB6F894DEBFD0
:101230000FBECDBFDF91CF911F910F9108956BEE3F
:1012400073E083E991E00E94BF936EEF73E08DE855
:1012500091E00E94BF9367E574E087E891E00E9407
:10126000BF9364E674E081E891E00E94BF936CE76D
:1012700074E08BE791E00E94BF9326E046E162E0D4
:101280008EED95E0E2C082CAFC01329623E030E0A8
:10129000CF01B9010E942497AF01481B590BCA0125
:1012A000B9010E942497CB01880F991F880F991FBD
:1012B0000895DC01FB018081869586958C93908151
:1012C0009370818182958F7020E1929F800D11240F
:1012D00011968C93119781818F70880F880F92815E
:1012E0009295969596959370890F12968C93129776
:1012F00082818F7313968C9308958F929F92AF92F1
:10130000BF92CF92DF92EF92FF920F931F93CF93F2
:10131000DF93CDB7DEB727970FB6F894DEBF0FBEC9
:10132000CDBF7C015A016B01A60EB71E00E010E094
:1013300020E030E04E0185E0880E911CCA14DB04E9
:1013400031F1C9010196F60141916F01F401E20FFB
:10135000F31F408383309105C1F4B401CE0101969F
:10136000A8DFDE011196C701800F911FED91F0E01B
:10137000E756FE4F2491FC012193CF01A815B90532
:10138000A9F70C5F1F4F80E090E09C01D7CF690167
:101390002115310509F441C02330310554F4E5E04D
:1013A000F0E0EC0FFD1FE20FF31F10822F5F3F4FA5
:1013B000F3CFBE016B5F7F4FCE0101965C0179DFF9
:1013C000D501C701800F911FED91F0E0E756FE4F68
:1013D0002491FC012193CF019D012A193B09C216DA
:1013E000D30694F70F5F1F4FC601D7FE02C080E0FF
:1013F00090E0080F191FF701E00FF11FCE18DF086A
:10140000C01AD10A2DE38F010E191F09C6018E0FD4
:101410009F1F039714F42193F6CFF701E00FF11FFC
:101420001082C80127960FB6F894DEBF0FBECDBF5D
:10143000DF91CF911F910F91FF90EF90DF90CF90B0
:10144000BF90AF909F908F900895DC0115966C939C
:10145000159716964C93169770E0FB01E25FFC4FD0
:10146000E4911796EC931797FB01EC5AFC4F6491AB
:1014700018966C93189740E85EE360E070E01D9664
:101480004D935D936D937C9350970895CF93DF9325
:10149000EC0162E08D810E94A38E40E358EF6FEF74
:1014A0007FEF49875A876B877C87DF91CF910895BB
:1014B000AF92BF92CF92DF92EF92FF920F931F9362
:1014C000CF93DF93EC01AF80662311F0BA2C01C0FB
:1014D000B12CA885B0E0AA0FBB1FA656BC4F40E0B8
:1014E00050E0BA01FD0185919491FC0180818A212F
:1014F0008B1112C08A019B010F5F1F4F2F4F3F4F6F
:10150000CD84DE84EF84F8884C155D056E057F057B
:1015100038F4B901A801E6CF342F252FCB0104C040
:1015200030E020E080E090E0632F722FDF91CF91D8
:101530001F910F91FF90EF90DF90CF90BF90AF90F1
:101540000895CF92DF92EF92FF920F931F93CF9364
:10155000DF93CDB7DEB7C054D1400FB6F894DEBFED
:101560000FBECDBF8C01F62E0E947C8DF11016C0EF
:10157000F801C184D284E384F4849B01AC012C196A
:101580003D094E095F0969017A0130EDC31637E064
:10159000D306E104F10410F48189B6C0F801618733
:1015A0007287838794871482138212821182108239
:1015B00061E085810E94DC8E6AEF70E080E090E05F
:1015C0000E94AB8D61E0F80185810E94A38E60E0EE
:1015D000F80185810E94DC8E64E170E080E090E09B
:1015E0000E94AB8DF89461E0F80185810E94DC8E49
:1015F00088E290E00E94E28D62E0F80185810E941D
:10160000A38E8AE090E00E94E28D60E0C80150DF86
:10161000672B682B692B39F061E0C80149DF672B24
:10162000682B692B21F4F801118A78946CC06E0143
:10163000FFEBCF1AFEEFDF0A9E012F5F3F4F7901CC
:1016400060E0C80135DFF701608371838283938393
:1016500061E0C8012DDFF70164837583868397837A
:10166000F8E0EF0EF11CEC14FD0451F778949E01A4
:101670002F5F3F4F790120E030E0F7014081518139
:101680006281738184819581A681B781411551055D
:1016900061057105B1F10097A105B10591F1F9015D
:1016A000F595E795F595E795F595E795E00FF11F29
:1016B000D080DD0C481759076A077B0710F0D082ED
:1016C00003C08D2D816080832F5F3F4FF8E0EF0EC8
:1016D000F11C2832310589F6F801248130E040817F
:1016E000818190E0840F911D4281840F911D43817F
:1016F000840F911D99272817390719F481E0818BF0
:1017000003C0F801118A80E0C05CDE4F0FB6F89488
:10171000DEBF0FBECDBFDF91CF911F910F91FF9024
:10172000EF90DF90CF900895CF92DF92EF92FF92EB
:101730000F931F93CF93DF93EC01162F642F01DFDC
:10174000882309F443C08E818B3031F008F43EC009
:101750008551823040F03AC06A8170E080E090E0CC
:101760000E94F39524C00A81602F6F7770E080E0BB
:1017700090E00E94F59520E030E040E853E40E94BC
:10178000A9966B017C016B8170E080E090E00E9483
:10179000F5959B01AC01C701B6010E94F2942DECB6
:1017A0003CEC4CEC5DE30E94A99607FD9058112398
:1017B00089F026E636E646EE5FE30E94A99620E031
:1017C00030E040E052E40E94F29404C060E070E037
:1017D00080EC9FE7DF91CF911F910F91FF90EF90E9
:1017E000DF90CF900895CF92DF92EF92FF92CF9348
:1017F000DF93EC0160E0A5DE882379F18E818B30E8
:1018000029F158F18551823040F5688170E080E01F
:1018100090E00E94F39520E030E040E853E40E941D
:10182000A9966B017C01698170E080E090E00E94E4
:10183000F5959B01AC01C701B6010E94F2942DEC15
:101840003CEC4CEC5DE30E94A9960BC0688170E013
:1018500080E090E00E94F39504C060E070E080ECCE
:101860009FE7DF91CF91FF90EF90DF90CF900895A9
:10187000E091EF07F091F0079F012F5F3F4F30930A
:10188000F0072093EF07808308951F93CF93DF9392
:10189000C62FD72F182F160F1C1719F08991E8DFC4
:1018A000FBCFDF91CF911F910895CF93DF93EC0190
:1018B00086E191E0E0EFF5E0DF019C011D9221500F
:1018C0003040E1F780910108833019F467E178E056
:1018D00002C06FE675E043E450E084E490E00E94CB
:1018E000E5156FE675E080EF95E00E94501A81E003
:1018F00080931A0680931B0686E080931C06409115
:10190000FD075091FE076091FF077091000840931A
:101910001E0650931F066093200670932106809147
:101920000108833031F467E278E086E296E00E94B5
:10193000451A6BE278E086E396E00E94501A86E052
:1019400097E09093F0078093EF076CE072E086E0F9
:101950009CDF80910108811102C081E001C083E019
:1019600087DF8DE385DF87E083DF81E081DF6BE266
:1019700078E086E08ADF8CE07BDF80E279DF62E17D
:1019800072E080E282DF209779F082E371DF84E009
:101990006FDFBE0184E079DF86E36ADF84E068DF21
:1019A00067E178E084E071DFC091EE07C11102C009
:1019B000D3E001C0D4E087E35BDF8D2F59DF81E006
:1019C00057DF83E055DF86E053DFCC2311F08C2F07
:1019D0004FDF8FEF4DDF8091EF079091F0078A5135
:1019E0009640DF91CF910C9441160F931F93A62F31
:1019F0008634910580F120911306233461F500911E
:101A00001E0610911F06209120063091210640915C
:101A1000FD075091FE076091FF07709100080417C1
:101A2000150726073707B9F4EAE0F7E080519A4F27
:101A30009F012E5F3F4F41815081553319F45281F0
:101A40005A1739F0F901E40FF11DE817F90780F38F
:101A500002C081E001C080E01F910F910895DF92E4
:101A6000EF92FF920F931F93CF93DF9300D01F92BB
:101A7000CDB7DEB78C0180910108823009F492C0A5
:101A800030F48823C9F1813009F44FC02AC1833072
:101A900021F0843009F486C024C18091F10790912F
:101AA000F207A091F307B091F4078F3F9F4FAF4F1C
:101AB000BF4F09F416C10E947C8D0091F50710916B
:101AC000F6072091F7073091F807601B710B820B26
:101AD000930B0091F1071091F2072091F3073091D9
:101AE000F407601771078207930708F4FAC087E2CA
:101AF00098E0DBDE84E0E9C00E947C8D6093FD0706
:101B00007093FE078093FF079093000810922708B8
:101B1000109228081092290810922A0880E090E07C
:101B2000C4DE81E089D481E0D0C062E0C8015DDF1D
:101B3000882309F16AE276E0CE0101960E94451AF7
:101B4000EAE0F7E000511A4FBF016E5F7F4F8181DD
:101B50009081963329F487E198E00E94451A06C0E7
:101B6000FB01E80FF11DE017F10770F3CE010196BC
:101B70009CDE82E0AAC00E947C8D0091F907109142
:101B8000FA072091FB073091FC07601B710B820B59
:101B9000930B613177428105910508F4A2C0109240
:101BA00001089FC065E0C80120DF882321F381E0A0
:101BB00052D46AE276E087E298E00E94451AEAE0B1
:101BC000F7E0C80180519A4F7C0180818F010E5F40
:101BD0001F4FD1808630B1F048F4813079F08330E6
:101BE00009F044C0B8018BE198E00FC08A3381F05E
:101BF0008F3F09F44AC08333C9F50AC0B80183E2B4
:101C000098E003C0B80183E198E00E94451A3BC008
:101C1000F80184E040E050E0BA0191912227342F8E
:101C2000452F562F290F311D411D511D815019F08F
:101C3000BA01A901F2CF2093F1073093F207409344
:101C4000F3075093F4072F3F9FEF390749075907D0
:101C5000D1F0A8EEB3E00E946E976093F107709305
:101C6000F2078093F3079093F4070DC0E091EC071F
:101C7000F091ED07309739F09091EE07891303C08A
:101C80004D2DB801199580E001C081E0F801ED0DFE
:101C9000F11D811104C0EE15FF0508F496CF0E94D6
:101CA0007C8D6093F5077093F6078093F707909308
:101CB000F80780911B08882321F08BE198E00E94AF
:101CC0006B1683E0809301080CC0809301080E948A
:101CD0007C8D6093F9077093FA078093FB079093CC
:101CE000FC070F900F900F900F90DF91CF911F91F5
:101CF0000F91FF90EF90DF900895CF93DF9321E055
:101D000020930E08009781F040E250E0662331F006
:101D1000BC0182E192E00E94F09921C0BC0182E105
:101D200092E00E94B6991BC020913008822F90E06B
:101D300034E0959587953A95E1F78A3014F430E3CD
:101D400001C037E3830F80931A02822F8F708A308D
:101D500014F490E301C097E3890F80931B02109263
:101D600001080E947C8DEB0180910108833061F4B1
:101D7000BDD710920C0810920B0881E090910108D9
:101D8000933079F080E00DC00E947C8D6C1B7D0B40
:101D900060367A4E68F79CD2882331F3EAD25FDE50
:101DA000E3CFDF91CF910895EF92FF920F931F93AE
:101DB000CF93DF93D82FF92EE62E0E947C8D8B01D6
:101DC00087D2C82F811113C00E947C8D601B710BBC
:101DD00060337547A8F3C0E0E3C0CBD20E9461171F
:101DE0000E947C8D601B710B60337547A0F764D730
:101DF0008111F3CF10920F08109210081092110861
:101E000010921208809102088F5F809302089091CF
:101E1000130891110BC048E058E0BA014093130831
:101E200050931408609315087093160890E045E3EA
:101E300050E063E178E0906EC8D68CE0EAE1F6E02D
:101E4000DF011D928A95E9F7A6E2B6E06D2F7F2D9E
:101E5000362F3D1BFB01EE2011F0208101C02491A3
:101E60006F5F7F4F2E3251F0222341F0862F8D1B62
:101E7000AD01480F511DFA012083EACFCD01019633
:101E80003C93DC01A30FB11D222319F0D62FF72EAE
:101E9000DDCF1C9211961C92119721E012962C9383
:101EA000129713961C92139714962C93149780EF05
:101EB00095E0A81BA552A0931A0680910208809372
:101EC0001B0620931C0620931F068A2F90E0D9D66C
:101ED0000E947C8D8B0180910F08811161C00E944E
:101EE0007C8D601B710B6033754708F074CF41D255
:101EF0007C01009781F3E5D7892B69F746E4E41666
:101F0000F10448F380911306853329F78091140674
:101F1000803E09F780911506909102088913DBCF66
:101F200090911B069813D7CF80911D068F7009F0F2
:101F300052CFE0911A06F0E0E65EF94FC7018051FA
:101F40009A4F2081207C19F0DF0112960BC0319648
:101F5000DF01E817F90730F4FD0131962C912111CA
:101F6000F7CFDF019D01225F3F4F8217930708F4EF
:101F7000B2CF11962C9111971996EC9119972130A7
:101F800051F4E43041F4BD01665F7F4F8FE098E08B
:101F90000E94451AA0CFF0E03A96EA0FFB1FD1CF7E
:101FA0008C2FDF91CF911F910F91FF90EF900895AB
:101FB0008EBD0DB407FEFDCF089561E08091060847
:101FC0000E94DC8E78940895F89460E08091060871
:101FD0000C94DC8E1F93CF93DF931F921F92CDB78B
:101FE000DEB7182F4A836983EFDF6981862F8F71EF
:101FF000812BDEDF4A81842FDBDF0F900F90DF9192
:10200000CF911F91DACF1F93CF93DF93182F1076C4
:10201000C12FD0E02091070830E0C217D30791F01C
:1020200043E06FE180EAD6DF10930708AE0185E058
:10203000559547958A95E1F76FE180E8DF91CF915B
:102040001F91C8CFDF91CF911F9108951F93CF9318
:10205000DF931F92CDB7DEB7182F6983D4DF498194
:10206000612F80E40F90DF91CF911F91B3CF1F9329
:10207000CF93DF931F92CDB7DEB7182F7983E6DFBA
:102080007981672F81E0810F0F90DF91CF911F91B0
:10209000DDCF0F931F93CF93DF93EC018B0194DF80
:1020A000209729F4DF91CF911F910F9186CF8AE776
:1020B0007FDFF80181918EBDC00FD11FEC17FD07A6
:1020C00031F081910DB407FEFDCF8EBDF7CF0DB479
:1020D00007FEFDCFE7CF0F931F93CF93DF93EC0164
:1020E0008B0172DF2097B1F08AE362DF1EBCF8013A
:1020F000CE01019739F00DB407FEFDCF2EB51EBC01
:102100002193F7CF2197C00FD11F0DB407FEFDCF4C
:102110008EB58883DF91CF911F910F914ECF1F9382
:10212000CF93DF931F92CDB7DEB7182F4DDF812FEE
:102130008F713EDF80E03CDF17FF02C080E038DFB8
:102140008EB589833ADF89810F90DF91CF911F91FE
:102150000895CF93C82F57DF8C2FCF91E0CF61E048
:1021600085E30E94A38E61E085E30E94DC8E61E03E
:1021700083E30E94A38E61E084E30E94A38E60E06B
:1021800082E30E94A38E61E083E30E94DC8E60E024
:1021900083E30E94DC8E60E084E30E94DC8E80E5B5
:1021A0008CBD8DB581608DBD08950F931F93CF9326
:1021B000DF931F92CDB7DEB78B0190930A0880930F
:1021C00009080CB406FC03C04983C9DF4981409368
:1021D000060861E0842F0E94A38EEFDE4FEF60E0DF
:1021E0008FEFF8DE62E070E080E090E00E94AB8D5F
:1021F0008DE195DF8823E1F360E070E088E037DF70
:1022000060E070E08CE033DF6FEF7BE08AE02FDF8F
:1022100060E07CE084E02BDF6FEF71E186E027DF98
:1022200061EB88E313DF6FE370E388E220DF69EF9F
:1022300077EF80E31CDF6DE080EC08DF60E081EC8D
:1022400005DF42E362EC80E8C5DE62E17CE086EC1B
:102250000EDF62E184ECFADE6CED75E08AEC07DFFC
:10226000F801608184EEF2DEF801618185EEEEDE38
:10227000F801628182EEEADEF801638183EEE6DE38
:10228000F801648180EEE2DEF801658181EEDEDE38
:1022900060E184EDDBDE60E071E086EDE8DE8AEE91
:1022A00058DF80FDFCCF8FE1AEDE40EC6BE180E8D3
:1022B00091DE44E06FE180E88DDE82E74ADF863020
:1022C00008F08F5F0F90DF91CF911F910F910895CC
:1022D00061E184EDBBDE61E082EDB8DE8AEE39DFDC
:1022E00080FDFCCF60E082EDB1DE89ED32DF82FB64
:1022F000882780F90895CF93DF93EC0140E86FE1E0
:1023000080E868DE40E86FE180EA64DE4AE06CE184
:1023100080EA60DE60E07CE082E0A9DEBE01745FFE
:1023200086E0A5DE40E060E08AE754DE60EF75E01D
:10233000CE01AFDE48E06FE180E84CDEC0E0D0E0E7
:102340008CE107DF8A7029F42196C83E83E0D80724
:10235000B9F78CE1FEDE81FD03C0C83ED34030F00A
:1023600048E06FE180EADF91CF9134CEDF91CF91E9
:1023700008950F931F93CF93DF9300D000D0CDB774
:10238000DEB780910508882381F060910308709181
:1023900004086115710519F46FEF7BE002C061500C
:1023A00071098CE064DE1092050889E3D2DE88238F
:1023B000A9F1609103087091040880E058DEBE0125
:1023C0006F5F7F4F86E090E086DE89819A819093EF
:1023D0000408809303088B819C8100910908109167
:1023E0000A082D8127FF0CC004970150110980179E
:1023F000910708F48C0160EF75E0C8016CDE02C043
:1024000000E010E0F801E051FA4F108281E0809383
:10241000050840E46EE180E8DDDD02C000E010E088
:10242000C80126960FB6F894DEBF0FBECDBFDF9170
:10243000CF911F910F910895CF93C82F88E389DE24
:10244000682F616088E302DEC11103C081E08093E0
:102450000808CF910895811102C010920808809158
:102460000808811106C088E374DE682F6E7F88E358
:10247000EDCD0895CF93DF93EC01FB018A309105F8
:1024800040F06AE070E00E941097CB01BF01F2DFDC
:10249000FC01CE016AE070E00E941097805D8083AD
:1024A0001182CF010196DF91CF910895E82FF0E0DE
:1024B00093E0F595E7959A95E1F7EF5CF74F877014
:1024C00041E050E060E070E004C0440F551F661F1B
:1024D000771F8A95D2F78081842B80830895CF93CC
:1024E000C8E3C15019F08C2FE1DFFBCFCF910895E5
:1024F000AF92BF92CF92DF92EF92FF920F931F9312
:10250000CF93DF93CDB7DEB70E851F85E888F988B6
:102510005E0122E1A20EB11CC7010196F7014491B0
:10252000442309F4D8C0443279F0D8011696ED91CD
:10253000FC9117979F012F5F3F4F17963C932E9367
:10254000169740837C01E8CFB2E0EB0EF11CFC0152
:102550008491863409F472C064F48434C9F08534FB
:1025600009F09CC0F50180819181F2E0AF0EB11CB1
:102570007DC0D80116964D915C9117978C3409F463
:1025800045C0833509F44FC0883409F087C00CC0BA
:102590006501B2E0CB0ED11CF80166817781D501CF
:1025A0008D919C9167DF88C095012E5F3F4FF501AB
:1025B0006081862F992787FD9095E4E09595879512
:1025C000EA95E1F78F70962F9F709A300CF0995F23
:1025D00070E3D72ED90E8A300CF0895FBA016F5F95
:1025E0007F4FD80117967C936E931697805DFA0102
:1025F00080831696ED91FC911797CF01019617965F
:102600009C938E931697D082590186CF6501F4E092
:10261000CF0ED11CD5016D917D918D919C912AE0B9
:102620000E94FF9949C06501B2E0CB0ED11CF501B3
:1026300060817181CA010E94DB993EC0F501019061
:10264000F081E02D22E0A20EB11C2491AF014F5F7A
:102650005F4F222309F460CFF801A681B781CD0135
:102660000196978386832C93FA01EFCF6C01BFEF1D
:10267000CB1ADB0A0E946D9C882309F44DCFD80148
:102680001696ED91FC9117979F012F5F3F4F17967C
:102690003C932E9316978083C601E8CFD8011696F7
:1026A000ED91FC9117979F012F5F3F4F17963C9339
:1026B0002E931697808330CFD8011696ED91FC911A
:1026C000179701900020E9F731971796FC93EE9346
:1026D0001697560121CFDF91CF911F910F91FF9057
:1026E000EF90DF90CF90BF90AF9008950F931F931E
:1026F000CF93DF9300D0CDB7DEB78C0110920E08D8
:1027000088E34B8369837A83EADE69817A818BE28D
:1027100098E0C6D64B816BE278E0C8010F900F902D
:102720000F90DF91CF911F910F913FCDDC01169655
:10273000ED91FC9117979F012F5F3F4F17963C93A8
:102740002E931697608381E090E008950F931F9376
:10275000CF93DF9370E060517A4F213021F48A01EA
:10276000075F1F4F05C0223031F48A010250110962
:1027700020E030E003C000E010E09801DB01FA0146
:10278000E230F10578F0CC91D0E0DC2FCC27119627
:102790009C911197C92B0C0F1D1F211D311D1296E5
:1027A0003297EECFDA01AE7FA60FB71F40FF0CC005
:1027B0004C9150E060E070E0762F652F542F442755
:1027C000040F151F261F371FA901662777274115FC
:1027D00051056105710519F022273327F1CF0095C6
:1027E0001095E82FF0E0E051FA4F10830183DF915C
:1027F000CF911F910F91089510920806109209062B
:1028000080E480930406109205068093060620E07B
:1028100044E150E06EE088E199CF209114063091B8
:10282000120630931406209312062091150630915B
:1028300013063093150620931306EAE1F6E0AEE1A5
:10284000B6E02291820F911D2E918C93662311F098
:10285000208301C01082892F992726E0E631F207F4
:1028600081F7109222061092230680E580931E06BF
:102870000895CF93DF93EC018896909300068093A0
:102880000106BADF1092220610922306AE01445EC2
:102890005F4F22E06AE182E359DFCE01C696DF9105
:1028A000CF9129CDBC0180EF95E0FAD56BE278E0BD
:1028B00086EF95E0F5C586EF95E0F4DF6AE076E017
:1028C0008EE096E0E2D567E278E08AE096E0DDD53A
:1028D00093CF262F206120931F06643021F00097AC
:1028E00011F481E090E061E098DF1092000688E248
:1028F00080930106E0DF84E0809320061092210699
:1029000022E04CE150E06AE182E320DF86E390E0E0
:10291000F2CCCF93DF931F921F92CDB7DEB76983BE
:102920007A83C0DF69817A818EE096E0AED567E276
:1029300078E08AE096E00F900F90DF91CF91A5C5E7
:102940001F93CF93DF93EC018FE695E0ABDF88E038
:102950008093FC0516E01093FD0548E050E06FE71A
:1029600072E08EEF95E00E94AD99E0E1F6E0DF01C4
:102970001D921A95E9F76BE278E086E096E090D533
:10298000BE0186E196E081D567E278E08CE096E0D2
:102990007CD58AE290E0DF91CF911F91ACCCCF93B0
:1029A000DF93EB0144E050E0BC018CE096E00E9434
:1029B000C599892B31F466E076E0CE0171D581E0CE
:1029C00001C080E0DF91CF9108950F931F93CF93C3
:1029D000DF93CDB7DEB728970FB6F894DEBF0FBEF2
:1029E000CDBF1C821B822BE635E03A83298326E289
:1029F00036E03E832D8338872F83909159088913C1
:102A000055C0A0915308B091540800914E08109100
:102A10004D087091520860915108CE0101961097AF
:102A2000C1F4209156082F93209155082F930F93AE
:102A30001F93209150082F9320914F082F937F933D
:102A40006F9322E532E03F932F939F938F9350DD56
:102A500028C02091550830915608FD0101900020B2
:102A6000E9F73197EA1BFB0B2115310529F442E602
:102A700055E021E532E002C040E655E0BF93AF9358
:102A8000FF93EF935F934F933F932F930F931F9376
:102A90007F936F932AED31E03F932F939F938F9312
:102AA00027DD0FB6F894DEBF0FBECDBF8F819885AE
:102AB0002D813E81821B930B28960FB6F894DEBFC2
:102AC0000FBECDBFDF91CF911F910F9108950F934E
:102AD0001F93CF93DF93890190915908891751F083
:102AE000E0915708F091580840E050E060E070E055
:102AF00084E029C0611128C02D30310528F1C09132
:102B00005708D09158082097F9F0BA0167507A4FCA
:102B100043E050E083E695E00E94E29960911E0652
:102B200070E034E0759567953A95E1F7660F771F89
:102B3000660F771F6E5D7F4F21E0892B09F420E03F
:102B4000A801822FFE01199580E0DF91CF911F919E
:102B50000F910895CF93DF93209127082223A9F0A6
:102B6000FC012081222389F0E7E2F8E0EC01A3E2F6
:102B7000B8E0219189919D918227892331F488E0E1
:102B8000EB32F807B1F781E001C080E0DF91CF912F
:102B900008958091000690E0982F882720910106E3
:102BA000822B449720911E0630E064E035952795EE
:102BB0006A95E1F7220F331F220F331F821B930BFD
:102BC00097FF02C080E090E00895CF92DF92EF92ED
:102BD000FF920F931F93CF93DF93F82EE92EEB0113
:102BE000D42EC52ECB01B6DFBE01882319F085E4B3
:102BF00098E002C08BE398E08CDE2881207F203EA5
:102C000091F0088119812A813B810F3F1F4F2F4F7F
:102C10003F4F49F044E050E0BE018FE198E00E9450
:102C2000C599892B29F46FE675E080EF95E038D4DB
:102C300088E08093FC051092FD0549E050E066E7CE
:102C400072E08EEF95E00E94AD991092000681E14E
:102C500080930706C0921406D0921506E0921206E1
:102C6000F09213061092160610921806109219068A
:102C7000DF91CF911F910F91FF90EF90DF90CF9058
:102C80000895CF93DF93EC014C96909300068093C8
:102C90000106B2DDCE0108969093160680931706C2
:102CA000AE01405F5F4F21E06AE188E24FDDCE0177
:102CB0008A96DF91CF911FCB83E198E04BDF882389
:102CC00019F08091430804C080913A08869581707C
:102CD00091E08927089510920C0810920B0821E0CA
:102CE00020933A08BC018BE198E0CFC3CF93DF93E8
:102CF000E7E2F8E0C3E2D8E0AFE1B8E09191899172
:102D00008095892B8D9388E0EB32F807B9F7DF9136
:102D1000CF91089590935D0880935C0870935B0851
:102D200060935A0850935F0840935E0881E0809357
:102D30006008809161088F5F8770809361080895B3
:102D40000F931F93909352088093510870935008EB
:102D500060934F0850934E0840934D0830935608A7
:102D60002093550810925408109253081093580855
:102D700000935708409132025091330265EE74E19E
:102D800087E695E1C7DF809359081F910F91089559
:102D90000F931F93909352088093510870934E089D
:102DA00060934D085093560840935508309354084B
:102DB000209353081093580800935708409132020B
:102DC0005091330265EE74E187E695E1A3DF8093CD
:102DD00059081F910F9108951F93CF93DF93EB0133
:102DE0004091140650E0292F30E04217530709F0B4
:102DF00060C09091150698135CC010911F0611FFDA
:102E000037C0109200068CE28093010654DD82E107
:102E100080931F0660E081E090E0FFDC10921606D0
:102E200010921706809134028093180610921906AA
:102E30008D5F8093340282E08093260684E0809345
:102E4000270685E0809328061092290690E6909345
:102E50001E068093200688E78093210622E040E248
:102E600050E06AE182E372DC8AE390E044DA21C058
:102E700014FF1FC08EDE9093390880933808892B89
:102E800091F020911E0630E044E0359527954A9553
:102E9000E1F7220F331F220F331F2E5D3F4FC21762
:102EA000D30750F406C010FF04C060E080E090E05B
:102EB00010DD80E090E001C0C901DF91CF911F914A
:102EC0000895EF92FF920F931F93CF93DF931F927A
:102ED000CDB7DEB77C0180910E08882319F0C701B9
:102EE0000E942F0DE114F10409F0B4C080913A085A
:102EF000857049F080910B0890910C08892B19F48A
:102F0000E7D98111BFC080910B0890910C08019600
:102F100090930C0880930B0880916008813009F031
:102F200077C080913A0881FF73C082E08093600887
:102F3000809135028F5F8093350210915E08009179
:102F40005F088F71F82E8091610820E2829FC00196
:102F50001124F82A8FE098E0FDDD6FE078E0882307
:102F600019F085E498E002C08BE398E0D2DCE8E059
:102F7000EE2EE092FC051092FD0549E050E066E778
:102F800072E08EEF95E00E94AD998CE2809301068D
:102F900086E08093070630DC009314061093150634
:102FA0008BE080931206F0921306E6E1F6E0DF0173
:102FB0001D92EA94E9F780913402809318068D5FA0
:102FC0008093340280E680931E0682E080931F0681
:102FD00093E0909320061092210610922206109200
:102FE000230610922406109225068093260694E06C
:102FF000909327068093280686E28093290622E094
:1030000040E250E06AE182E3A1DB8AE390E073D919
:1030100083E198E09FDD882341F08091430881118E
:1030200004C0809144088823B1F18FE098E092DDDC
:10303000882309F4BEC1809141088111BAC18091F1
:1030400042088111B6C18FE098E07ADC81E080937C
:103050004208AFC1B9E2EB16F10408F4AAC110911D
:10306000FC051830F9F48091FD058630D9F444E070
:1030700050E067E278E086E196E00E94C599892BEE
:1030800089F443C08BE198E05BDC80913A0888606A
:1030900080933A0838CF83E198E052DC81E0809356
:1030A0004408C3CFFAE2EF16F10408F482C11830E5
:1030B00009F07FC18091FD0581117BC18091FE05E2
:1030C000853409F076C144E050E067E278E08EE0B4
:1030D00096E00E94C599892B09F478C044E050E03D
:1030E0006FE178E08EE096E00E94C599892B09F4A3
:1030F0006DC044E050E06FE675E08EE096E00E941F
:10310000C599892B09F055C161C0809105068130B0
:10311000F9F486EF95E0C6DB1092040682E0809316
:10312000050666E076E080E196E0BAD16BE278E0F1
:1031300086E096E0B5D16CE076E086E196E0A5D138
:1031400067E278E08CE096E0A0D18AE290E0D3D804
:1031500080913A0883FF0BC010910506123039F4B4
:103160006BE378E08BE198E01ADC811126C0809156
:10317000430881110BC080914408882339F065E42D
:1031800078E083E198E00BDC81111AC0809141085E
:1031900081110FC180914208882309F40AC165E4B6
:1031A00078E08FE098E0FBDB882309F402C181E03E
:1031B0008093410810924208FCC010933A08D7CF80
:1031C00081E08093430810924408E0CF8091070685
:1031D0008130F9F4809112068830D9F4E0914B08DF
:1031E000F0914C08309719F08AE096E0199563DB6E
:1031F0001092120690911406983F28F080911506BF
:103200008F5F80931506985F90931406C70173D85B
:10321000D0C0D9D0811105C0E6E3EE16F10430F438
:10322000C8C0809107068131B9F7BEC080910706FA
:10323000863009F0BEC0809114068B3009F0A7C01B
:1032400044E050E06FE078E08AE096E00E94C599A3
:10325000892B09F0AEC020911F0622FF13C0E09118
:103260005C08F0915D08309759F08091150620E0D8
:1032700030E040E050E063E08295869587701995D4
:1032800085E073C0298385DC8C01809160082981E9
:10329000823061F5822F807122712231D9F460E091
:1032A00080E090E016DB88E180931F06E0915A08E9
:1032B000F0915B08309739F08091130682958695DE
:1032C0008770199502C080E090E023E020936008A9
:1032D000D0DA6FC091E090936008811103C0C801FB
:1032E000019602C080E090E064E039C0833009F0CC
:1032F0003FC00115110509F43DC0E0915C08F09153
:103300005D083097B9F140911E0650E064E0559594
:1033100047956A95E1F7440F551F440F551FC701A4
:1033200008974E5D5F4F8417950708F4AC01C801FC
:10333000840F951FE816F90620F49701241B350B1E
:1033400001C098018091150660E08295869587708E
:10335000199580910D08882321F068E0C801B9DA39
:1033600028C069E0C801B5DA86E08093600821C012
:103370008530F9F020FF06C08330D9F069E0C8013C
:103380000196F1CF01151105A1F060E0E7CFB7017B
:1033900080913202909133020F90DF91CF911F9173
:1033A0000F91FF90EF9018CDC70114D0882309F436
:1033B00033CF80E090E00F90DF91CF911F910F917C
:1033C000FF90EF90089581E090916208911101C003
:1033D00080E00895AF92BF92CF92DF92EF92FF927A
:1033E0000F931F93CF93DF93C3E6D8E077E6C72E02
:1033F00078E0D72EE12CF12C40E02091620830E0FB
:10340000E216F306B4F55A819B812091140630E050
:10341000A92EB12C2A153B0521F58091150685139F
:1034200020C0F60120812223E1F00091170610E070
:10343000085011092091160630E0322F2227020F82
:10344000131F4091120650E0542F44272091130679
:10345000422BE881F9812AE136E06AE076E01995AD
:1034600041E0FFEFEF1AFF0A259685E0C80ED11C58
:10347000C4CF842FDF91CF911F910F91FF90EF90D8
:10348000DF90CF90BF90AF900895FB0140815181B4
:1034900062817381FC014083518362837383089549
:1034A00026E0FB01DC0101900D922A95E1F70895D9
:1034B00023E0829FC0011124ABE8B8E020E030E0B7
:1034C00080569D4FFC01E20FF31FE491ED932F5FB7
:1034D0003F4F23303105B1F710928E088BE898E00A
:1034E0000895282F220F280FABE8B8E080E090E085
:1034F00030E029573D4FF901E80FF91FE491ED93B2
:10350000019683309105B9F710928E088BE898E008
:1035100008956F927F928F929F92AF92BF92CF92B7
:10352000DF92EF92FF920F931F93CF93DF93EA0105
:103530002CE3C22ED12CE12CF12CA70196010E9484
:1035400037976883CA01B901A70196010E9437978E
:103550006983CA01B90128E130E040E050E00E94EF
:10356000379749015A016A83CA01B9016C5F7F4FDD
:103570008F4F9F4F27E030E040E050E00E943797A8
:103580006F5F6B8300E010E0980140E054E6652E29
:10359000712C60E9C62EDD24D394E42FF0E0EE54C4
:1035A000F84F7F0183E0E822FF24E114F10489F45D
:1035B000CF01B3010E942497892B29F08EE691E078
:1035C000A0E0B0E00AC0CF01B6010E942497892B89
:1035D000A9F38DE691E0A0E0B0E0080F191F2A1FC3
:1035E0003B1FD901C801AA27BB2788169906AA063E
:1035F000BB0610F04F5FD1CF4E83E114F10499F474
:10360000CF0164E670E00E942497892B29F08EE6B2
:1036100091E0A0E0B0E00BC0CF0160E971E00E9452
:103620002497892BA1F38DE691E0A0E0B0E0081B80
:10363000190B2A0B3B0B801A910AA20AB30ACF017D
:1036400064E670E00E9424979C01CF0160E971E07C
:103650000E942497E5E7F5E0A0E0A13059F4E114D9
:10366000F10451F42115310511F04DE106C0009728
:10367000E1F302C0408101C04CE150E060E070E045
:1036800084169506A606B70640F0841A950AA60A7F
:10369000B70AAF5F3196AC3001F7AF5FAD8383946B
:1036A0008C82DF91CF911F910F91FF90EF90DF906F
:1036B000CF90BF90AF909F908F907F906F90089524
:1036C000CF92DF92EF92FF926B017C018091A5086F
:1036D0009091A608A091A708B091A808C816D9068D
:1036E000EA06FB0669F049EA58E0C701B60111DFB6
:1036F000C092A508D092A608E092A708F092A80868
:10370000FF90EF90DF90CF900895DADF8091AF08BF
:1037100090E08E54984F08956F927F928F929F926F
:10372000AF92BF92CF92DF92EF92FF920F931F93CF
:10373000CF93DF93FC01C680AC2DB0E020E833E3EB
:1037400041EE51E00E946E974B015C0122EB37E0A5
:103750006D01C4E6D0E000E911E0C901825B974049
:103760008C159D05DCF4C90183709927892B99F488
:10377000C901BE010E942497892B31F4C901B80107
:103780000E942497892B39F480E8880E81E5981EE1
:1037900081E0A81EB11C2F5F3F4FDFCF6580712CE9
:1037A0008EE4C81A88EFD80AC60164E670E00E9469
:1037B00024978C01C60160E971E00E9424977C0186
:1037C000C1E0D0E083E0C822DD24C615D7052CF582
:1037D000C230D10589F4C114D10471F40115110569
:1037E00019F4E114F10441F480E8880E8BE3981E8B
:1037F00086E2A81EB11C0FC0DE01AC58BA4FAC91D6
:10380000B0E020E831E541E050E00E946E97860E7E
:10381000971EA81EB91E2196D8CF4181228130E083
:10382000A0E1BEE00E945F976B017C01242F30E095
:10383000ACE3B0E00E945F97C60ED71EE81EF91EEB
:103840008081C80ED11CE11CF11CA481B0E011974D
:1038500020E831E541E050E00E947897C60ED71E7F
:10386000E81EF91EC80CD91CEA1CFB1CC701B601D6
:10387000DF91CF911F910F91FF90EF90DF90CF904C
:10388000BF90AF909F908F907F906F9008950F930F
:103890001F936093A1087093A2088093A30890934C
:1038A000A40800913602109137022091380230911D
:1038B0003902060F171F281F391F0093990810930C
:1038C0009A0820939B0830939C0882E090E09093A4
:1038D0009808809397080E947C8D60939D08709350
:1038E0009E0880939F089093A0081F910F910895C0
:1038F000CF92DF92EF92FF920F931F930E947C8DE5
:10390000C0909D08D0909E08E0909F08F090A0087D
:103910006C197D098E099F090091A1081091A208D8
:103920002091A3083091A408683E73408105910559
:10393000D8F00F5F1F4F2F4F3F4F0093A1081093F8
:10394000A2082093A3083093A40848EEC40E43E0D5
:10395000D41EE11CF11CC0929D08D0929E08E092FA
:103960009F08F092A008CACF8091990890919A0878
:10397000A0919B08B0919C08081719072A073B07DC
:10398000C0F1E0919508F0919608309791F1199562
:10399000611571058105910511F079DF2AC08091CB
:1039A000360290913702A0913802B09139024091CD
:1039B000A1085091A2086091A3087091A408840FF7
:1039C000951FA61FB71F8093990890939A08A093FC
:1039D0009B08B0939C0881E090E02091970830917B
:1039E0009808232B11F480E090E09093980880933E
:1039F00097086091A1087091A2088091A308909106
:103A0000A4081F910F91FF90EF90DF90CF90089541
:103A10006FDF56DE8091AB0890E0089569DF50DEDD
:103A20008091AA0890E0089563DF4ADE8091A9089A
:103A300090E008955DDF44DE8091AD0890E0089548
:103A400057DF3EDE8091AC0890E0089551DF38DE0C
:103A50008091AE0890E008954BDF57CEEF92FF9231
:103A60000F9394E6E916F1042CF092EBE91A97E033
:103A7000F90A03C09EE1E90EF11CE092AF08009341
:103A8000AE082093AD088093AB086093AA084093DA
:103A9000A90889EA98E040DE0F91FF90EF90F7CEF9
:103AA00027DF80919708909198080895FC01108273
:103AB000118212821382148215821682178247E6BF
:103AC00056EE69E07AE6408751876287738745E85A
:103AD0005EEA67E67BEB448755876687778742E730
:103AE00053EF6EE67CE3408B518B628B738B4AE322
:103AF00055EF6FE475EA448B558B668B778B4FE7F8
:103B000052E56EE071E5408F518F628F738F4CE804
:103B100058E665E07BE9448F558F668F778F4BEAD7
:103B200059ED63E87FE140A351A362A373A349E188
:103B30005DEC60EE7BE544A355A366A377A30895EF
:103B40002F923F924F925F926F927F928F929F92AD
:103B5000AF92BF92CF92DF92EF92FF920F931F939B
:103B6000CF93DF93CDB7DEB7C458D1090FB6F89421
:103B7000DEBF0FBECDBF1C018B01DB012C91119666
:103B80008C911197C82ED12CE12CF12C560199243F
:103B90008824B22A13968C911397882A12968C91B6
:103BA0001297982A89A29AA2ABA2BCA214962C9131
:103BB000149715968C9190E0A0E0B0E06C01BB24C6
:103BC000AA24D22ADB0117968C911797A82A169659
:103BD0008C911697B82AAD8ABE8ACF8AD88E18964D
:103BE0002C91189719968C9190E0A0E0B0E05C01C0
:103BF00099248824B22ADB011B968C911B97882A72
:103C00001A968C911A97982A8D8E9E8EAF8EB8A296
:103C10001C962C911C971D968C9190E0A0E0B0E032
:103C20005C0199248824B22ADB011F968C911F978E
:103C3000882A1E968C911E97982A89A69AA6ABA6CA
:103C4000BCA650962C91509751968C9190E0A0E094
:103C5000B0E05C0199248824B22AD80153968C9153
:103C60005397882A52968C915297982A8DA29EA299
:103C7000AFA2B8A654962C91549755968C9190E08B
:103C8000A0E0B0E05C0199248824B22AD8015796BC
:103C90008C915797882A56968C915697982A89AA7C
:103CA0009AAAABAABCAA58962C91589759968C916F
:103CB00090E0A0E0B0E05C0199248824B22AD80109
:103CC0005B968C915B97882A5A968C915A97982A82
:103CD0008DAA9EAAAFAAB8AE5C962C915C975D9611
:103CE0008C9190E0A0E0B0E05C0199248824B22A95
:103CF000D8015F968C915F97882A5E968C915E972B
:103D0000982A89AE9AAEABAEBCAE90962C919097A5
:103D100091968C9190E0A0E0B0E05C019924882419
:103D2000B22AD80193968C919397882A92968C9177
:103D30009297982A61968CAE9DAEAEAEBFAE61975B
:103D400094962C91949795968C9190E0A0E0B0E099
:103D50005C0199248824B22AD80197968C91979770
:103D6000882A96968C919697982A25968CAE9DAE29
:103D7000AEAEBFAE259798962C91989799968C9158
:103D800090E0A0E0B0E05C0199248824B22AD80138
:103D90009B968C919B97882A9A968C919A97982AB1
:103DA00029968CAE9DAEAEAEBFAE29979C962C9157
:103DB0009C979D968C9190E0A0E0B0E05C019924E6
:103DC0008824B22AD8019F968C919F97882A9E9624
:103DD0008C919E97982A2D968CAE9DAEAEAEBFAEBE
:103DE0002D97D0962C91D097D1968C9190E0A0E011
:103DF000B0E05C0199248824B22AD801D3968C9132
:103E0000D397882AD2968C91D297982A65968CAEB1
:103E10009DAEAEAEBFAE6597D4962C91D497D59695
:103E20008C9190E0A0E0B0E05C0199248824B22A53
:103E3000D801D7968C91D797882AD6968C91D69709
:103E4000982A21968CAE9DAEAEAEBFAE2197D89685
:103E50002C91D897D9968C9190E0A0E0B0E05C01CD
:103E600099248824B22AD801DB968C91DB97882A82
:103E7000DA968C91DA97982A69968CAE9DAEAEAEA2
:103E8000BFAE6997DC962C91DC97DD968C9190E023
:103E9000A0E0B0E05C0199248824B22AD801DF9622
:103EA0008C91DF97882ADE968C91982A6D968CAE3D
:103EB0009DAEAEAEBFAE6D97D10118968D909D9020
:103EC000AD90BC901B97A9968CAE9DAEAEAEBFAE2A
:103ED000A9971C968D909D90AD90BC901F97E196F0
:103EE0008CAE9DAEAEAEBFAEE19750968D909D90DC
:103EF000AD90BC905397ED968CAE9DAEAEAEBFAE7E
:103F0000ED9754968D909D90AD90BC905797C35867
:103F1000DF4F88829982AA82BB82CD57D0405896C3
:103F20008D909D90AD90BC905B97AD968CAE9DAE04
:103F3000AEAEBFAEAD975C968D909D90AD90BC90AF
:103F40005F97E5968CAE9DAEAEAEBFAEE597909610
:103F50008D909D90AD90BC909397E9968CAE9DAE60
:103F6000AEAEBFAEE99794968D909D90AD90BC900B
:103F70009797CF57DF4F88829982AA82BB82C15818
:103F8000D040D501C4018856904DA547BD4BAD9694
:103F90004CAD5DAD6EAD7FADAD97EBE076956795C1
:103FA00057954795EA95D1F7AD960CAD1DAD2EAD61
:103FB0003FADAD97F5E1000F111F221F331FFA959A
:103FC000D1F7402B512B622B732BAD960CAD1DAD51
:103FD0002EAD3FADAD97E6E0369527951795079541
:103FE000EA95D1F7AD96CCACDDACEEACFFACAD97BD
:103FF000FAE1CC0CDD1CEE1CFF1CFA95D1F70C2964
:104000001D292E293F294027512762277327AD9666
:104010000CAD1DAD2EAD3FADAD97E9E136952795C1
:1040200017950795EA95D1F7AD96CCACDDACEEAC23
:10403000FFACAD97F7E0CC0CDD1CEE1CFF1CFA9535
:10404000D1F70C291D292E293F2940275127622706
:104050007327840F951FA61FB71FE9964CAD5DAD62
:104060006EAD7FADE997E5968CAC9DACAEACBFACC8
:10407000E597482559256A257B25AD96ACACBDACA6
:10408000CEACDFACAD974A215B216C217D21E99656
:10409000CCACDDACEEACFFACE9974C255D256E25D4
:1040A0007F25840F951FA61FB71FE9A0FAA00BA1BB
:1040B0001CA18E0D9F1DA01FB11FC358DF4F08818B
:1040C00019812A813B81CD57D040080F191F2A1F23
:1040D0003B1FE1964CAC5DAC6EAC7FACE197A99612
:1040E0004CAD5DAD6EAD7FADA997442A552A662AC9
:1040F000772AED968CAC9DACAEACBFACED9748206A
:1041000059206A207B20E1964CAD5DAD6EAD7FAD50
:10411000E197A996ACACBDACCEACDFACA9974A2177
:104120005B216C217D21442A552A662A772AB60113
:10413000A501EDE07695679557954795EA95D1F7F6
:1041400076016501F3E1CC0CDD1CEE1CFF1CFA9539
:10415000D1F74C295D296E297F29A996CCACDDAC1D
:10416000EEACFFACA997E2E0F694E794D794C7943D
:10417000EA95D1F7A9968CAC9DACAEACBFACA99733
:10418000FEE1880C991CAA1CBB1CFA95D1F7C82823
:10419000D928EA28FB284C255D256E257F25A99680
:1041A000CCACDDACEEACFFACA997E6E1F694E794BD
:1041B000D794C794EA95D1F7A9968CAC9DACAEACD8
:1041C000BFACA997FAE0880C991CAA1CBB1CFA95F5
:1041D000D1F7C828D928EA28FB284C255D256E256B
:1041E0007F25440E551E661E771E480E591E6A1EF8
:1041F0007B1EE9968CAD9DADAEADBFADE9978F56F8
:104200009B4BA84CBE48CD88DE88EF88F88C8C0D7F
:104210009D1DAE1DBF1DE5964CAD5DAD6EAD7FAD78
:10422000E597AD968CAC9DACAEACBFACAD974825D8
:1042300059256A257B254023512362237323E59664
:10424000ACACBDACCEACDFACE5974A255B256C25AC
:104250007D25840F951FA61FB71FB901A801EBE0AC
:104260007695679557954795EA95D1F76801790155
:10427000F5E1CC0CDD1CEE1CFF1CFA95D1F74C29A6
:104280005D296E297F2968017901E6E0F694E794BB
:10429000D794C794EA95D1F748015901FAE1880CFF
:1042A000991CAA1CBB1CFA95D1F7C828D928EA2862
:1042B000FB284C255D256E257F2568017901E9E104
:1042C000F694E794D794C794EA95D1F74801590139
:1042D000F7E0880C991CAA1CBB1CFA95D1F7C828DA
:1042E000D928EA28FB284C255D256E257F25840FDB
:1042F000951FA61FB71FED964CAD5DAD6EAD7FADA2
:10430000ED97480F591F6A1F7B1FA996CCACDDACF7
:10431000EEACFFACA997C428D528E628F728E1968B
:104320008CAC9DACAEACBFACE197C820D920EA20E4
:10433000FB20C986DA86EB86FC86A996CCACDDAC80
:10434000EEACFFACA997C420D520E620F7208984E5
:104350009A84AB84BC848C289D28AE28BF2889868B
:104360009A86AB86BC8663015201EDE0D694C79471
:10437000B794A794EA95D1F7AD82BE82CF82D88652
:1043800053014201F3E1880C991CAA1CBB1CFA954D
:10439000D1F7CD80DE80EF80F884C828D928EA28BC
:1043A000FB28CD82DE82EF82F88653014201E2E0F3
:1043B000B694A79497948794EA95D1F789829A82C4
:1043C000AB82BC8263015201FEE1AA0CBB1CCC1C77
:1043D000DD1CFA95D1F745015601C980DA80EB80E2
:1043E000FC80C828D928EA28FB288D809E80AF80D1
:1043F000B8848C249D24AE24BF248D829E82AF82FB
:10440000B88663015201E6E1D694C794B794A794A5
:10441000EA95D1F7A982BA82CB82DC82730162016C
:10442000FAE0CC0CDD1CEE1CFF1CFA95D1F789805C
:104430009A80AB80BC808C289D28AE28BF28CD8078
:10444000DE80EF80F884C824D924EA24FB24898400
:104450009A84AB84BC848C0C9D1CAE1CBF1C880E43
:10446000991EAA1EBB1E89869A86AB86BC86E596D7
:104470008CAD9DADAEADBFADE59781539440AF43DC
:10448000BA448D8C9E8CAF8CB8A0880D991DAA1D46
:10449000BB1D89839A83AB83BC83AD968CAD9DADE8
:1044A000AEADBFADAD9780279127A227B327842358
:1044B0009523A623B723AD96ACACBDACCEACDFAC98
:1044C000AD978A259B25AC25BD25C980DA80EB8078
:1044D000FC80C80ED91EEA1EFB1EC982DA82EB825E
:1044E000FC82DB01CA01EBE0B695A795979587950D
:1044F000EA95D1F76A017B01F5E1CC0CDD1CEE1CDD
:10450000FF1CFA95D1F78C299D29AE29BF296A0194
:104510007B01E6E0F694E794D794C794EA95D1F747
:104520004A015B01FAE1880C991CAA1CBB1CFA9594
:10453000D1F7C828D928EA28FB288C259D25AE2547
:10454000BF256A017B01E9E1F694E794D794C7940B
:10455000EA95D1F74A015B01F7E0880C991CAA1C87
:10456000BB1CFA95D1F7C828D928EA28FB288C2546
:104570009D25AE25BF2589809A80AB80BC80880EA2
:10458000991EAA1EBB1E89829A82AB82BC82E196CA
:10459000CCACDDACEEACFFACE1978C0C9D1CAE1C42
:1045A000BF1C8DA69EA6AFA6B8AA89859A85AB85A5
:1045B000BC8584299529A629B729A9968CAC9DACE0
:1045C000AEACBFACA99788219921AA21BB21C9848F
:1045D000DA84EB84FC84C420D520E620F7208C29E3
:1045E0009D29AE29BF298D879E87AF87B88BC98447
:1045F000DA84EB84FC84ADE0F694E794D794C79416
:10460000AA95D1F789849A84AB84BC84B3E1880CE1
:10461000991CAA1CBB1CBA95D1F7C828D928EA282E
:10462000FB2889859A85AB85BC85E2E0B695A79580
:1046300097958795EA95D1F7898B9A8BAB8BBC8B35
:1046400089859A85AB85BC85FEE1880F991FAA1FD5
:10465000BB1FFA95D1F789889A88AB88BC88882ACD
:10466000992AAA2ABB2AC824D924EA24FB248985AA
:104670009A85AB85BC85E6E1B695A7959795879514
:10468000EA95D1F7898B9A8BAB8BBC8B89859A8500
:10469000AB85BC85FAE0880F991FAA1FBB1FFA954E
:1046A000D1F789889A88AB88BC88882A992AAA2A4F
:1046B000BB2AC824D924EA24FB248D859E85AF8596
:1046C000B8898C0D9D1DAE1DBF1D89809A80AB8061
:1046D000BC80880D991DAA1DBB1D8D879E87AF8745
:1046E000B88BAD968CAD9DADAEADBFADAD978B55D6
:1046F0009442AA44B64189A49AA4ABA4BCA4880D50
:10470000991DAA1DBB1D898B9A8BAB8BBC8B6A0133
:104710007B01C026D126E226F3268DA59EA5AFA556
:10472000B8A9C822D922EA22FB22C026D126E22635
:10473000F32689889A88AB88BC888C0C9D1CAE1C9B
:10474000BF1C898A9A8AAB8ABC8A6C017D01EBE026
:10475000F694E794D794C794EA95D1F74C015D019C
:10476000F5E1880C991CAA1CBB1CFA95D1F7C82846
:10477000D928EA28FB284C015D01E6E0B694A7940D
:1047800097948794EA95D1F7FAE1880F991FAA1FA9
:10479000BB1FFA95D1F7882A992AAA2ABB2AC824CE
:1047A000D924EA24FB248DA49EA4AFA4B8A8A9E12F
:1047B000B694A79497948794AA95D1F78DA59EA5B2
:1047C000AFA5B8A9E7E0880F991FAA1FBB1FEA95FC
:1047D000D1F7882A992AAA2ABB2AC824D924EA24EC
:1047E000FB2489889A88AB88BC888C0C9D1CAE1CE5
:1047F000BF1C898A9A8AAB8ABC8AA996CCACDDACEC
:10480000EEACFFACA9978C0C9D1CAE1CBF1C8D821E
:104810009E82AF82B8868D859E85AF85B889898452
:104820009A84AB84BC8488299929AA29BB2984212C
:104830009521A621B721CD84DE84EF84F888C82095
:10484000D920EA20FB208C299D29AE29BF29898304
:104850009A83AB83BC83CD84DE84EF84F888FDE04B
:10486000F694E794D794C794FA95D1F78D849E84F3
:10487000AF84B888A3E1880C991CAA1CBB1CAA951C
:10488000D1F7C828D928EA28FB288D849E84AF84D4
:10489000B888B2E0B694A79497948794BA95D1F764
:1048A0008D859E85AF85B889EEE1880F991FAA1F77
:1048B000BB1FEA95D1F7882A992AAA2ABB2AC824BD
:1048C000D924EA24FB248D849E84AF84B888F6E141
:1048D000B694A79497948794FA95D1F78D859E8581
:1048E000AF85B889EAE0880F991FAA1FBB1FEA9518
:1048F000D1F7882A992AAA2ABB2AC824D924EA24CB
:10490000FB2489809A80AB80BC808C0C9D1CAE1CE3
:10491000BF1CC988DA88EB88FC888C0C9D1CAE1CF7
:10492000BF1C89829A82AB82BC828DA09EA0AFA060
:10493000B8A485EA881A8DE3980A89EAA80A86EC61
:10494000B80A800E911EA21EB31E0DA51EA52FA58E
:1049500038A90427152726273727CD80DE80EF804A
:10496000F8840C211D212E213F21042715272627FD
:104970003727800E911EA21EB31E97018601FBE011
:104980003695279517950795FA95D1F7A5E1CC0CA3
:10499000DD1CEE1CFF1CAA95D1F70C291D292E2920
:1049A0003F29CD80DE80EF80F884B6E0F694E7946E
:1049B000D794C794BA95D1F78D819E81AF81B88580
:1049C000EAE1880F991FAA1FBB1FEA95D1F7C82AF1
:1049D000D92AEA2AFB2A0C251D252E253F25CD8024
:1049E000DE80EF80F884F9E1F694E794D794C794D9
:1049F000FA95D1F78D819E81AF81B885E7E0880F68
:104A0000991FAA1FBB1FEA95D1F7C82AD92AEA2AFB
:104A1000FB2A0C251D252E253F25800E911EA21E4A
:104A2000B31E75016401C40CD51CE61CF71CC98AB1
:104A3000DA8AEB8AFC8A49805A806B807C80ED841C
:104A4000FE840F8518894E285F28602A712A0985FF
:104A50001A852B853C8540225122622273220981CE
:104A60001A812B813C818D859E85AF85B88908236D
:104A700019232A233B23402A512A622A732A0981B7
:104A80001A812B813C81FDE0369527951795079576
:104A9000FA95D1F7C980DA80EB80FC80A3E1CC0CD9
:104AA000DD1CEE1CFF1CAA95D1F70C291D292E290F
:104AB0003F29C980DA80EB80FC80B2E0F694E7946D
:104AC000D794C794BA95D1F789819A81AB81BC817B
:104AD000EEE1880F991FAA1FBB1FEA95D1F7C82ADC
:104AE000D92AEA2AFB2A0C251D252E253F25C98017
:104AF000DA80EB80FC80F6E1F694E794D794C794D3
:104B0000FA95D1F789819A81AB81BC81EAE0880F5F
:104B1000991FAA1FBB1FEA95D1F7C82AD92AEA2AEA
:104B2000FB2A0C251D252E253F25400E511E621EF9
:104B3000731E480C591C6A1C7B1CC9A8DAA8EBA878
:104B4000FCA89FE0C91A9EEED90A9EE0E90A96EAFF
:104B5000F90AC40ED51EE61EF71E4D815E816F81D7
:104B600078858DA49EA4AFA4B8A8482559256A25A8
:104B70007B2509891A892B893C894023512362238B
:104B80007323482559256A257B25C40ED51EE61EAC
:104B9000F71EB901A801FBE07695679557954795F3
:104BA000FA95D1F7A5E1000F111F221F331FAA9517
:104BB000D1F7402B512B622B732B09891A892B8932
:104BC0003C89B6E03695279517950795BA95D1F7A4
:104BD00089889A88AB88BC888AE1880C991CAA1CB1
:104BE000BB1C8A95D1F7082919292A293B29402776
:104BF00051276227732709891A892B893C8999E1F2
:104C000036952795179507959A95D1F789889A88AB
:104C1000AB88BC88E7E0880C991CAA1CBB1CEA95F1
:104C2000D1F7082919292A293B294027512762272A
:104C30007327C40ED51EE61EF71E29853A854B85BF
:104C40005C852C0D3D1D4E1D5F1D29873A874B87C6
:104C50005C8789809A80AB80BC8084289528A628B0
:104C6000B7284D855E856F85788984229522A62296
:104C7000B72249815A816B817C814421552166216B
:104C80007721842A952AA62AB72AB301A201FDE03A
:104C90007695679557954795FA95D1F793018201D7
:104CA000A3E1000F111F221F331FAA95D1F7402B3C
:104CB000512B622B732B93018201B2E0369527951D
:104CC00017950795BA95D1F7D301C201EEE1880F88
:104CD000991FAA1FBB1FEA95D1F7082B192B2A2B66
:104CE0003B2B402751276227732793018201F6E16E
:104CF0003695279517950795FA95D1F7D301C201F7
:104D0000EAE0880F991FAA1FBB1FEA95D1F7082B6D
:104D1000192B2A2B3B2B4027512762277327840E00
:104D2000951EA61EB71E8C0C9D1CAE1CBF1C0DA98B
:104D30001EA92FA938AD0C551D47204C3D46CDA4CA
:104D4000DEA4EFA4F8A80C0D1D1D2E1D3F1D8989A2
:104D50009A89AB89BC894D815E816F817885842772
:104D60009527A627B727C984DA84EB84FC848C2195
:104D70009D21AE21BF2184279527A627B727080F9D
:104D8000191F2A1F3B1FD701C601FBE0B695A79547
:104D900097958795FA95D1F7B701A601E5E1440FFC
:104DA000551F661F771FEA95D1F7842B952BA62BED
:104DB000B72BB701A601F6E076956795579547950D
:104DC000FA95D1F7EAE1CC0CDD1CEE1CFF1CEA954C
:104DD000D1F74C295D296E297F2984279527A6279D
:104DE000B72749855A856B857C85F9E17695679566
:104DF00057954795FA95D1F7C984DA84EB84FC84FA
:104E0000E7E0CC0CDD1CEE1CFF1CEA95D1F74C2929
:104E10005D296E297F2984279527A627B727080FA4
:104E2000191F2A1F3B1F4D855E856F857889400FAE
:104E3000511F621F731F4D875E876F87788B7501C7
:104E40006401C428D528E628F72869817A818B81F6
:104E50009C81C622D722E822F922D501C4018421EF
:104E60009521A621B721C82AD92AEA2AFB2AD501E9
:104E7000C401FDE0B695A79597958795FA95D1F76A
:104E8000B501A401E3E1440F551F661F771FEA95A2
:104E9000D1F7842B952BA62BB72BA1968CAF9DAF6A
:104EA000AEAFBFAFA197B501A401F2E076956795CB
:104EB00057954795FA95D1F74DA75EA76FA778ABA1
:104EC000C501B401AEE1660F771F881F991FAA952F
:104ED000D1F7AB01BC018DA59EA5AFA5B8A9842BC8
:104EE000952BA62BB72BA1964CAD5DAD6EAD7FADCE
:104EF000A197482759276A277B27A1964CAF5DAF1A
:104F00006EAF7FAFA197C501B401B6E196958795C5
:104F100077956795BA95D1F76DA77EA78FA798ABC0
:104F2000D501C4014AE0880F991FAA1FBB1F4A95EB
:104F3000D1F74DA55EA56FA578A9482B592B6A2BF3
:104F40007B2BA1968CAD9DADAEADBFADA197842757
:104F50009527A627B727C80ED91EEA1EFB1EC00E2E
:104F6000D11EE21EF31E09AD1AAD2BAD3CAD0B52A6
:104F7000114A234E34454D815E816F817885040F3F
:104F8000151F261F371F89859A85AB85BC854989E2
:104F90005A896B897C8984279527A627B7274D8551
:104FA0005E856F85788984239523A623B723498955
:104FB0005A896B897C8984279527A627B727080FEC
:104FC000191F2A1F3B1F6D857E858F8598895BE0A1
:104FD00096958795779567955A95D1F76DA77EA792
:104FE0008FA798AB4D855E856F857889E5E1440F85
:104FF000551F661F771FEA95D1F78DA59EA5AFA512
:10500000B8A9842B952BA62BB72B8DA79EA7AFA74E
:10501000B8AB4D855E856F857889F6E076956795A6
:1050200057954795FA95D1F7498F5A8F6B8F7C8F9B
:105030006D857E858F859889AAE1660F771F881F09
:10504000991FAA95D1F7AB01BC01898D9A8DAB8DC3
:10505000BC8D842B952BA62BB72B4DA55EA56FA5DC
:1050600078A9482759276A277B274DA75EA76FA7EE
:1050700078AB6D857E858F859889B9E19695879502
:1050800077956795BA95D1F7698F7A8F8B8F9C8FBB
:105090008D859E85AF85B88947E0880F991FAA1F27
:1050A000BB1F4A95D1F7498D5A8D6B8D7C8D482B4E
:1050B000592B6A2B7B2B8DA59EA5AFA5B8A984275C
:1050C0009527A627B727080F191F2A1F3B1F4981BD
:1050D0005A816B817C81400F511F621F731F49836E
:1050E0005A836B837C83C701B601682979298A2991
:1050F0009B2964217521862197216D837E838F836F
:105100009887D701C60188219921AA21BB214D8109
:105110005E816F817885482B592B6A2B7B2B4D83C1
:105120005E836F837887C701B6015DE096958795AA
:10513000779567955A95D1F7A1966CAF7DAF8EAFF5
:105140009FAFA197B701A601E3E1440F551F661F6A
:10515000771FEA95D1F7A1968CAD9DADAEADBFADF1
:10516000A197842B952BA62BB72BA1968CAF9DAF27
:10517000AEAFBFAFA197B701A601F2E076956795F4
:1051800057954795FA95D1F74DA75EA76FA778ABCE
:10519000C701B601AEE1660F771F881F991FAA9558
:1051A000D1F7AB01BC018DA59EA5AFA5B8A9842BF5
:1051B000952BA62BB72BA1964CAD5DAD6EAD7FADFB
:1051C000A197482759276A277B27A1964CAF5DAF47
:1051D0006EAF7FAFA197C701B601B6E196958795EF
:1051E00077956795BA95D1F76DA77EA78FA798ABEE
:1051F000D701C6014AE0880F991FAA1FBB1F4A9515
:10520000D1F74DA55EA56FA578A9482B592B6A2B20
:105210007B2BA1968CAD9DADAEADBFADA197842784
:105220009527A627B7274D815E816F817885480F26
:10523000591F6A1F7B1F400F511F621F731F4D8331
:105240005E836F83788761960CAD1DAD2EAD3FAD4B
:10525000619708561545284F374269897A898B89A5
:105260009C89060F171F281F391F8D859E85AF85C6
:10527000B88949855A856B857C8584279527A6271B
:10528000B72749815A816B817C8184239523A6238A
:10529000B72349855A856B857C8584279527A62762
:1052A000B727080F191F2A1F3B1F69817A818B813D
:1052B0009C815BE096958795779567955A95D1F790
:1052C0006DA77EA78FA798AB49815A816B817C819E
:1052D000E5E1440F551F661F771FEA95D1F78DA5AD
:1052E0009EA5AFA5B8A9842B952BA62BB72B8DA770
:1052F0009EA7AFA7B8AB49815A816B817C81F6E04C
:105300007695679557954795FA95D1F7498F5A8FB6
:105310006B8F7C8F69817A818B819C81AAE1660F7A
:10532000771F881F991FAA95D1F7AB01BC01898D02
:105330009A8DAB8DBC8D842B952BA62BB72B4DA5B1
:105340005EA56FA578A9482759276A277B274DA70F
:105350005EA76FA778AB69817A818B819C81B9E167
:105360009695879577956795BA95D1F7698F7A8FD6
:105370008B8F9C8F89819A81AB81BC8147E0880F9C
:10538000991FAA1FBB1F4A95D1F7498D5A8D6B8D66
:105390007C8D482B592B6A2B7B2B8DA59EA5AFA509
:1053A000B8A984279527A627B727080F191F2A1FF2
:1053B0003B1FB901A801440D551D661D771D498B82
:1053C0005A8B6B8B7C8B4D805E806F8078844C28F1
:1053D0005D286E287F28482059206A207B208D81F7
:1053E0009E81AF81B8858C219D21AE21BF21482AA5
:1053F000592A6A2A7B2A6D817E818F8198855DE09A
:1054000096958795779567955A95D1F7A1966CAF44
:105410007DAF8EAF9FAFA1974D815E816F81788503
:10542000E3E1440F551F661F771FEA95D1F7A19658
:105430008CAD9DADAEADBFADA197842B952BA62BAA
:10544000B72BA1968CAF9DAFAEAFBFAFA1974D81EB
:105450005E816F817885F2E07695679557954795DF
:10546000FA95D1F74DA75EA76FA778AB6D817E81C6
:105470008F819885AEE1660F771F881F991FAA95C7
:10548000D1F7AB01BC018DA59EA5AFA5B8A9842B12
:10549000952BA62BB72BA1964CAD5DAD6EAD7FAD18
:1054A000A197482759276A277B27A1964CAF5DAF64
:1054B0006EAF7FAFA1976D817E818F819885B6E1B8
:1054C0009695879577956795BA95D1F76DA77EA73D
:1054D0008FA798AB8D819E81AF81B8854AE0880FF8
:1054E000991FAA1FBB1F4A95D1F74DA55EA56FA5B1
:1054F00078A9482B592B6A2B7B2BA1968CAD9DAD9F
:10550000AEADBFADA19784279527A627B727480E34
:10551000591E6A1E7B1E400E511E621E731E25966A
:105520000CAD1DAD2EAD3FAD25970F5F144A2C4736
:105530003D4E49855A856B857C85040F151F261FB6
:10554000371F89819A81AB81BC814D855E856F85CE
:10555000788984279527A627B72749895A896B898F
:105560007C8984239523A623B7234D855E856F858B
:10557000788984279527A627B727080F191F2A1F80
:105580003B1F69897A898B899C895BE09695879511
:10559000779567955A95D1F76DA77EA78FA798AB9A
:1055A00049895A896B897C89E5E1440F551F661F3B
:1055B000771FEA95D1F78DA59EA5AFA5B8A9842B35
:1055C000952BA62BB72B8DA79EA7AFA7B8AB498964
:1055D0005A896B897C89F6E076956795579547954A
:1055E000FA95D1F7498F5A8F6B8F7C8F69897A89A9
:1055F0008B899C89AAE1660F771F881F991FAA953E
:10560000D1F7AB01BC01898D9A8DAB8DBC8D842BFC
:10561000952BA62BB72B4DA55EA56FA578A948277E
:1056200059276A277B274DA75EA76FA778AB6989A3
:105630007A898B899C89B9E1969587957795679545
:10564000BA95D1F7698F7A8F8B8F9C8F89899A89C8
:10565000AB89BC8947E0880F991FAA1FBB1F4A95D9
:10566000D1F7498D5A8D6B8D7C8D482B592B6A2B28
:105670007B2B8DA59EA5AFA5B8A984279527A62726
:10568000B727080F191F2A1F3B1FB901A801480D92
:10569000591D6A1D7B1D498F5A8F6B8F7C8F8D80A2
:1056A0009E80AF80B88484289528A628B7288C20AF
:1056B0009D20AE20BF208D819E81AF81B885842141
:1056C0009521A621B721882A992AAA2ABB2AC30193
:1056D000B2015DE096958795779567955A95D1F7D4
:1056E000A1966CAF7DAF8EAF9FAFA197B301A20122
:1056F000E3E1440F551F661F771FEA95D1F7A19686
:105700008CAD9DADAEADBFADA197842B952BA62BD7
:10571000B72BA1968CAF9DAFAEAFBFAFA197B30132
:10572000A201F2E07695679557954795FA95D1F7DE
:105730004DA75EA76FA778ABC301B201AEE1660FBC
:10574000771F881F991FAA95D1F7AB01BC018DA5C2
:105750009EA5AFA5B8A9842B952BA62BB72BA196F8
:105760004CAD5DAD6EAD7FADA197482759276A2737
:105770007B27A1964CAF5DAF6EAF7FAFA197C30102
:10578000B201B6E19695879577956795BA95D1F769
:105790006DA77EA78FA798ABD301C2014AE0880FFF
:1057A000991FAA1FBB1F4A95D1F74DA55EA56FA5EE
:1057B00078A9482B592B6A2B7B2BA1968CAD9DADDC
:1057C000AEADBFADA19784279527A627B727880E32
:1057D000991EAA1EBB1E800E911EA21EB31E2996E4
:1057E0000CAD1DAD2EAD3FAD299702541A472E4C7E
:1057F0003B4D4D855E856F857889040F151F261FEB
:10580000371F89899A89AB89BC8949815A816B8103
:105810007C8184279527A627B727498D5A8D6B8DC4
:105820007C8D84239523A623B72349815A816B81DC
:105830007C8184279527A627B727080F191F2A1FC1
:105840003B1F698D7A8D8B8D9C8D5BE0969587953E
:10585000779567955A95D1F76DA77EA78FA798ABD7
:10586000498D5A8D6B8D7C8DE5E1440F551F661F68
:10587000771FEA95D1F78DA59EA5AFA5B8A9842B72
:10588000952BA62BB72B8DA79EA7AFA7B8AB498D9D
:105890005A8D6B8D7C8DF6E076956795579547957B
:1058A000FA95D1F74D875E876F87788B698D7A8DF2
:1058B0008B8D9C8DAAE1660F771F881F991FAA9573
:1058C000D1F7AB01BC018D859E85AF85B889842B4E
:1058D000952BA62BB72B4DA55EA56FA578A94827BC
:1058E00059276A277B274DA75EA76FA778AB698DDD
:1058F0007A8D8B8D9C8DB9E1969587957795679577
:10590000BA95D1F76D877E878F87988B898D9A8D11
:10591000AB8DBC8D47E0880F991FAA1FBB1F4A950E
:10592000D1F74D855E856F857889482B592B6A2B79
:105930007B2B8DA59EA5AFA5B8A984279527A62763
:10594000B727080F191F2A1F3B1FB901A8014C0DCB
:105950005D1D6E1D7F1D4D875E876F87788B75017E
:105960006401C428D528E628F7286D817E818F81BF
:105970009885C622D722E822F922D501C4018421C4
:105980009521A621B721C82AD92AEA2AFB2AD501BE
:10599000C4015DE0B695A795979587955A95D1F77F
:1059A000B501A401E3E1440F551F661F771FEA9577
:1059B000D1F7842B952BA62BB72BA1968CAF9DAF3F
:1059C000AEAFBFAFA197B501A401F2E076956795A0
:1059D00057954795FA95D1F74DA75EA76FA778AB76
:1059E000C501B401AEE1660F771F881F991FAA9504
:1059F000D1F7AB01BC018DA59EA5AFA5B8A9842B9D
:105A0000952BA62BB72BA1964CAD5DAD6EAD7FADA2
:105A1000A197482759276A277B27A1964CAF5DAFEE
:105A20006EAF7FAFA197C501B401B6E1969587959A
:105A300077956795BA95D1F76DA77EA78FA798AB95
:105A4000D501C4014AE0880F991FAA1FBB1F4A95C0
:105A5000D1F74DA55EA56FA578A9482B592B6A2BC8
:105A60007B2BA1968CAD9DADAEADBFADA19784272C
:105A70009527A627B727C80ED91EEA1EFB1EC00E03
:105A8000D11EE21EF31E2D960CAD1DAD2EAD3FAD09
:105A90002D970D531248234F3A4A49815A816B8101
:105AA0007C81040F151F261F371F898D9A8DAB8DA2
:105AB000BC8D49895A896B897C8984279527A627BB
:105AC000B7274D855E856F85788984239523A62326
:105AD000B72349895A896B897C8984279527A6270A
